:101800000EC01DC01CC01BC01AC019C018C017C014
:1018100016C015C014C013C012C011C010C01124CE
:101820001FBECFE5D2E0DEBFCDBF21E0A0E6B0E035
:1018300001C01D92A833B207E1F74ED16AC2E0CFD2
:10184000F92FE82F83E010D008950F92F92FE82F99
:10185000172E062E81E008D011240F900895F92F3D
:10186000E82F85E001D0089520915F00F894309131
:10187000570030FDFCCF80935700E89520935F0020
:10188000089508B602FC02C081E0089588B784601C
:1018900088BF809160008150809360008111F4CFF7
:1018A00010BE0895CF93DF936FEF7BEC80E090E064
:1018B000CCDFC2E0D0E0FE0165917491CE01C5DFBE
:1018C0002296C034D105B9F707B600FCFDCF80E001
:1018D00090E0C5DF07B600FCFDCFDF91CF91089502
:1018E000AFDF07B600FCFDCF0895EF92FF920F9394
:1018F0001F93CF93DF93EC01C07C209791F48091EC
:101900006800809365008091690080936600FE0105
:10191000849180936800E1E0F0E0E491E093690055
:1019200004C0C115F8E1DF07D0F4CE01D9DF08E625
:1019300010E0CE01885690407C01F80160817181F1
:10194000C8018E0D9F1D81DF0E5F1F4FF0E0083A2A
:101950001F0799F7CE0183DF07B600FCFDCFDF91AB
:10196000CF911F910F91FF90EF900895CF93DF9348
:10197000909163009230E9F160F4992391F09130F5
:1019800009F0A5C090E0909362008093610082E02E
:1019900027C09430D9F108F43FC0953009F451C004
:1019A00096C08230E1F028F48823A1F08130C1F0A4
:1019B00090C08330C1F0843009F08BC01092630076
:1019C000F7D08EE12AD183E928D18BE026D1DF91AF
:1019D000CF91E9C08091A800DF91CF911EC184E032
:1019E0008093630076C085E080936300DF91CF91A0
:1019F000DFC020E030E030916100280F311D220F60
:101A0000331F309362002093610061C080936700B0
:101A10001092640083E0E4CF90916400E92FF0E03D
:101A2000E859FF4F808381E0890F80936400909193
:101A3000670089134EC0809161009091620055DF6C
:101A400046C080936700109263008091610090917E
:101A50006200892B19F0C0E0D0E025C080916500BC
:101A6000DCD080916600D9D08091610090916200B5
:101A700002969093620080936100C2E0D0E0809172
:101A8000670090E0C817D90724F5E0916100F09154
:101A90006200CF010196909362008093610084916F
:101AA000BCD02196ECCF8091670090E0C817D90791
:101AB00084F4E0916100F0916200CF01019690936F
:101AC0006200809361008491A8D02196ECCF10929F
:101AD0006300DF91CF9108952DD02ED01092A800F1
:101AE000E1DE88E540D08FE080BF88E2809360002F
:101AF00080E093D0C6DE882341F0AFD05ED088234B
:101B000079F063D08823B1F30BC0CFE0D0E0FE01C1
:101B100084918F3F29F083E013D0C4DEFE01099544
:101B20000DD085E00DD099D048D08111FCCF55D093
:101B30001DDFF9CFB99A0895C19A0895C198089503
:101B4000CF93DF93D82FC0E0CD1751F0F5DF000021
:101B500000000000F3DF000000000000CF5FF4CFC2
:101B6000DF91CF9108951092EF008093F30081E010
:101B70008093F1001092F0001092EE001092F200AB
:101B80001092A900B898BA9A80EE8EB988EA8DB9F9
:101B900008951FB8B89A8EE08EB90895B8981FB806
:101BA0008EE08EB908951092F0001092EE00089524
:101BB0001092F2001092A900089581E02091EE00A9
:101BC0009091F000291380E0089581E02091A90010
:101BD0009091F200291380E008959091F000E92F90
:101BE000F0E0E655FF4F80819F5F943418F49093A6
:101BF000F00008951092F00008959091EE00E92F02
:101C0000F0E0E655FF4F80839F5F943418F4909383
:101C1000EE0008951092EE0008959091A900E92F2A
:101C2000F0E0EC50FF4F80839F5F943418F4909362
:101C3000A90008951092A90008959091F200E92F4B
:101C4000F0E0EC50FF4F80819F5F943418F4909344
:101C5000F20008951092F2000895779B0BC0B2999C
:101C6000FECFB8986E9A80E48EB9779A81E080931F
:101C7000EF006C9A769B43C08091EF00833029F18E
:101C800028F4813049F08230B9F036C08530C9F08F
:101C900008F1863011F130C08FB186959091F30034
:101CA000891307C08FB181708093F10072DF82E0E9
:101CB0001BC01092EF001EC0B8988091F1008111F6
:101CC0000EC0B8981EB883E00FC08FB196DF61DFF9
:101CD00085E00AC063DF86E007C0789908C0ADDF01
:101CE0008FB9B89A1EB884E08093EF0003C01092B9
:101CF000EF006C98769A03C08091F30034DF759BF7
:101D000007C06E9880EE8EB91092EF008DB18DB93C
:061D10000895F894FFCFD6
:0400000300001800E1
:00000001FF
