:1000000023C03DC03CC03BC03AC03AC038C037C036
:1000100036C035C034C033C032C031C030C000003B
:100020000000370000000000380002020202020255
:10003000020202020102040810202004100801023A
:10004000000004000000000011241FBECFE5D2E034
:10005000DEBFCDBF10E0A0E6B0E0ECE3F2E002C00E
:1000600005900D92A836B107D9F720E0A8E6B0E0D8
:1000700001C01D92A137B207E1F74CD0DDC0C0CF5F
:100080001F920F920FB60F9211242F933F938F93CD
:100090009F93AF93BF9380916D0090916E00A0915C
:1000A0006F00B091700030916C0026E0230F2D3767
:1000B00020F40296A11DB11D05C029E8230F039667
:1000C000A11DB11D20936C0080936D0090936E0074
:1000D000A0936F00B09370008091680090916900C8
:1000E000A0916A00B0916B000196A11DB11D809393
:1000F000680090936900A0936A00B0936B00BF9171
:10010000AF919F918F913F912F910F900FBE0F90C4
:100110001F90189578948AB582608ABD8AB58160EF
:100120008ABD83B7826083BF83B7816083BF89B78D
:10013000826089BF80B7826080BF80B7816080BFE6
:10014000329A319A3098379A8CB580648CBDC5E369
:10015000D0E0FE0124910BE210E0F80184918823A5
:1001600099F090E0880F991FFC01E25EFF4FA59186
:10017000B4918C5D9F4FFC01459154918FB7F894D9
:100180009C91292B2C938FBF6FE3E62E60E0F62E17
:1001900070E0C72E70E0D72E2FB7F89480916D00D5
:1001A00090916E00A0916F00B09170002FBF57E04A
:1001B000B695A795979587955A95D1F78770992702
:1001C000AA27BB27FC01E05AFF4F3081F701949129
:1001D000FE012491F8018491882341F1992399F03B
:1001E000923071F028F4913071F49AB59F770AC07B
:1001F000933011F0943039F49CB59F7D9CBD03C0C1
:100200009AB59F7D9ABD90E0880F991F8C5D9F4F96
:10021000FC01A591B4918FB7F8949C91311103C062
:100220002095292301C0292B2C938FBFC114D10401
:0C02300009F4B2CFE5DEB0CFF894FFCFA8
:08023C000100010000000000B8
:00000001FF
