:1000000023C03DC03CC03BC03AC03AC038C037C036
:1000100036C035C07FC033C032C031C030C00102ED
:100020000000040000000000000000003800000094
:100030000000370002020202020202020202010272
:10004000040810202004100811241FBECFE5D2E0C0
:10005000DEBFCDBF10E0A0E6B0E0EAE6F2E002C00D
:1000600005900D92A836B107D9F720E0A8E6B0E0D8
:1000700001C01D92A237B207E1F7B2D0F4C0C0CFE1
:100080001F920F920FB60F9211242F933F938F93CD
:100090009F93AF93BF9380916E0090916F00A0915A
:1000A0007000B091710030916D0026E0230F2D3764
:1000B00020F40296A11DB11D05C029E8230F039667
:1000C000A11DB11D20936D0080936E0090936F0071
:1000D000A0937000B09371008091690090916A00C4
:1000E000A0916B00B0916C000196A11DB11D809391
:1000F000690090936A00A0936B00B0936C00BF916D
:10010000AF919F918F913F912F910F900FBE0F90C4
:100110001F9018951F920F920FB60F9211242F93D4
:100120008F939F93AF93BF93EF93FF932FB7F89461
:1001300080916E0090916F00A0917000B09171005D
:100140002FBF27E0B695A795979587952A95D1F764
:1001500087709927AA27BB27FC01E05AFF4F20810F
:10016000EFE1F0E09491EFE3F0E08491E5E3F0E07B
:10017000E491EE2349F1992399F0923071F028F43B
:10018000913071F49AB59F770AC0933011F0943092
:1001900039F49CB59F7D9CBD03C09AB59F7D9ABDE7
:1001A000F0E0EE0FFF1FE85DFF4FA591B4919FB700
:1001B000F894211105C02C91E82FE095E22302C0AC
:1001C000EC91E82BEC939FBFFF91EF91BF91AF9122
:1001D0009F918F912F910F900FBE0F901F901895A8
:1001E00078948AB582608ABD8AB581608ABD83B7FA
:1001F000826083BF83B7816083BF89B7826089BF14
:1002000080B7826080BF80B7816080BF329A319AA8
:100210003098379A8CB580648CBDEFE3F0E0249180
:10022000E5E3F0E08491882399F090E0880F991F2E
:10023000FC01E25DFF4FA591B491FC01E85DFF4F29
:10024000859194918FB7F894EC91E22BEC938FBF4A
:100250008FEA89BD89B7806189BFC0E0D0E020976F
:0A026000F1F3CEDEFCCFF894FFCFDF
:08026A00010001010000000089
:00000001FF
