:1000000023C03DC03CC03BC03AC08FC138C037C0E0
:1000100036C035C0A6C233C032C086C2D0C10000CF
:100020000000370000000000380002020202020255
:10003000020202020102040810202004100801023A
:10004000000004000000000011241FBECFE5D2E034
:10005000DEBFCDBF10E0A0E6B0E0EEECFBE002C0FA
:1000600005900D92A836B107D9F721E0A8E6B0E0D7
:1000700001C01D92A832B207E1F71FD4A6C5C0CFB8
:1000800090E0FC01E25CFF4F3491FC01EC5CFF4F1F
:100090002491FC01E65DFF4FE491EE2339F1332317
:1000A00099F0323071F028F4313071F48AB58F77DD
:1000B0000AC0333011F0343039F48CB58F7D8CBDEB
:1000C00003C08AB58F7D8ABDF0E0EE0FFF1FEC5DA7
:1000D000FF4FA591B4918FB7F894EC91611103C0D3
:1000E00020952E2301C02E2B2C938FBF0895CF93E4
:1000F000DF9390E0FC01EC5CFF4F2491FC01E65D96
:10010000FF4F8491882361F190E0880F991FFC01D3
:10011000E25EFF4FC591D491FC01EC5DFF4FA591CC
:10012000B491611109C09FB7F8948881209582230A
:100130008883EC912E230BC0623061F49FB7F89452
:100140003881822F809583238883EC912E2B2C93EA
:100150009FBF06C08FB7F894E8812E2B28838FBFEE
:10016000DF91CF910895809125018823E1F3E091FB
:10017000A100F0E0EE58FF4F80819091A1009F5FB9
:100180009F709093A100909125019150909325012B
:10019000089590919D009031E1F3E0919E00F0E090
:1001A000EE57FF4F808380919E008F5F8F7080930A
:1001B0009E0080919D008F5F80939D000895369AE8
:1001C0003699FECF84B195B10895E199FECF1CBA5E
:1001D00090E09FBB8EBB6DBBE29AE19AE199FECFA6
:1001E00008950F931F93CF93C82FCC0F70936B007C
:1001F00060936A00F8940AE610E0F80160818C2FA1
:10020000E4DFF801618181E08C0FDFDF7894CF912A
:100210001F910F9108951F93CF93DF938230D1F4F4
:10022000A2DFC82FA0DF9C2F9095891309C0C0932F
:1002300069008C2F90E0909306018093050151C0D6
:100240008091FF0090910001826090930001809363
:10025000FF0047C08430B9F586DFD82F84DF182F20
:1002600080936A0080DFC82F80936B007CDF1D0FB6
:10027000C10FC0958C1335C0D09369002D2F30E08D
:1002800080916A0090916B00F901EE0FFF1FEB5512
:10029000FF4F918380833093060120930501909353
:1002A000080180930701D032E0F4F894809169004E
:1002B000E82FF0E0EE0FFF1FEB55FF4F60817181DB
:1002C00090DF78940EC0882361F04DDF8093680042
:1002D00080910D0190910E01019690930E018093F3
:1002E0000D01DF91CF911F9108951F93CF93DF935D
:1002F000C0916900EC2FF0E0EE0FFF1FEB55FF4FB0
:10030000D0818181D0936A0080936B00182F8C2F4D
:1003100040DF8D2F3EDF812F3CDFCD0F8C2F810FF3
:100320008095DF91CF911F9134CF1F920F920FB61E
:100330000F9211242F933F938F939F93AF93BF936B
:100340008091990090919A00A0919B00B0919C009F
:100350003091980026E0230F2D3720F40296A11D3E
:10036000B11D05C029E8230F0396A11DB11D2093DF
:1003700098008093990090939A00A0939B00B0936B
:100380009C008091940090919500A0919600B0916E
:1003900097000196A11DB11D809394009093950044
:1003A000A0939600B0939700BF91AF919F918F91CA
:1003B0003F912F910F900FBE0F901F9018951F9295
:1003C0000F920FB60F9211242F933F934F935F9389
:1003D0006F937F938F939F93AF93BF93EF93FF930D
:1003E00080919200909193008230910509F459C058
:1003F00028F4009761F0019779F185C08430910568
:1004000009F458C030F1059709F45DC07CC08FB184
:10041000882331F08FB186959091A20089133EC058
:10042000789B67C0E0912601F0912701309739F061
:1004300080912501882319F0809125010995E0918B
:10044000A300F091A400309709F0099581E090E0B5
:1004500052C08FB1811122C080919D008823D1F0BC
:10046000E0919F00F0E0EE57FF4F80818FB98091BF
:100470009F008F5F8F7080939F0080919D008150BF
:1004800080939D0082E090E090939300809392008F
:10049000B89A17C0B8981FB88EE78EB988EA8DB998
:1004A00010C083E090E09093930080939200B898FE
:1004B0001FB827C085E090E090939300809392004E
:1004C000B89880E71FC080912501803190F4E091B9
:1004D000A0008FB1F0E0EE58FF4F80838091A00024
:1004E0008F5F8F708093A000809125018F5F809334
:1004F000250184E090E090939300809392001FB8D0
:10050000B89A8EE78EB9FF91EF91BF91AF919F910D
:100510008F917F916F915F914F913F912F910F90AC
:100520000FBE0F901F9018951F920F920FB60F924B
:1005300011248F931092930010929200B898B29B5E
:1005400002C0B09BFCCFB09902C088EF01C088EA1E
:100550008DB980EF8EB98F910F900FBE0F901F90C5
:1005600018951F920F920FB60F9211248F929F929F
:10057000AF92BF92CF92DF92EF92FF920F931F93B1
:100580002F933F934F935F936F937F938F939F939B
:10059000AF93BF93CF93DF93EF93FF93809171005D
:1005A0008F5F80937100809171008A3008F4C0C021
:1005B000109271008091E9009091EA00892B91F0EE
:1005C00061E083E05DDD809123019091240183301F
:1005D000910528F0880F991F04970197F1F760E0C3
:1005E00083E04EDD8091E5009091E6008090AB00C5
:1005F0009090AC00C091AD00D091AE0088159905E7
:1006000034F0BE018C179D071CF4BC0101C0B4017D
:100610007093E6006093E500C090A700D090A8001A
:100620000D2C000CEE08FF08092C000CAA08BB08D2
:10063000CB01770FAA0BBB0BBC01CD01681979095F
:100640008A099B092091A9003091AA008901330FE2
:10065000220B330BA90198012C193D094E095F09A2
:1006600032D2B22FA32FF42FE52FAE01DD0F660B90
:10067000770B9A01AB01281939094A095B096B2FDD
:100680007A2F8F2F9E2F03D2C20ED31EE41EF51E8B
:10069000D0922401C092230186B1877D86B9379A12
:1006A000CFE8C7B98CDD379AC7B989DD3798815152
:1006B00091409093FA008093F90081E887B97FDD3B
:1006C00015E0C0E0D0E07BDDC80FD91F1150D9F78D
:1006D000CE0165E070E0A5D19B0140E050E062E909
:1006E00077EB81E090E0D3D13093FC002093FB00C6
:1006F000809123019091240190930C0180930B0130
:100700002091F9003091FA008091CB009091CC00BB
:10071000281739076CF01092EA001092E9008091D6
:10072000FF00909100018160909300018093FF0091
:100730002FB7F8948091990090919A00A0919B0016
:10074000B0919C002FBF27E0B695A7959795879508
:100750002A95D1F787709927AA27BB27FC01E05A71
:10076000FF4F608181E08CDC86B1877D86B9379A46
:1007700082E987B924DDC5E0D0E021DD092E000C37
:10078000AA0BBB0B40916D0050916E0060916F0001
:1007900070917000840F951FA61FB71F80936D0086
:1007A00090936E00A0936F00B0937000219729F78B
:1007B000379880916C008B5F80936C008C3308F4C9
:1007C0005FC060916D0070916E0080916F0090919C
:1007D00070002FE030E040E050E037D13093EE0081
:1007E0002093ED00C090AB00D090AC000D2C000C1D
:1007F000EE08FF088090AF009090B000092C000C2C
:10080000AA08BB08CA01B901681979098A099B09B4
:100810002091AD003091AE008901330F220B330BD4
:10082000A90198012C193D094E095F094CD1B22F3D
:10083000A32FF42FE52F2091B1003091B200A90130
:10084000330F660B770B9A01AB01281939094A0956
:100850005B096B2F7A2F8F2F9E2F19D1C20ED31EBB
:10086000E41EF51ED092F600C092F50010926D00C5
:1008700010926E0010926F001092700010926C0037
:10088000FF91EF91DF91CF91BF91AF919F918F91A8
:100890007F916F915F914F913F912F911F910F9198
:1008A000FF90EF90DF90CF90BF90AF909F908F9090
:1008B0000F900FBE0F901F90189578948AB58260A4
:1008C0008ABD8AB581608ABD83B7826083BF83B7E2
:1008D000816083BF89B7826089BF80B7826080BF33
:1008E00080B7816080BF329A319A3098379A8CB540
:1008F00080648CBD61E083E0FADB60E083E0C0DB14
:1009000060E082E0F4DB61E081E0F1DB61E081E066
:10091000B7DB88E090E09093A6008093A50068E0A4
:1009200070E080E05EDC1092AC001092AB0080E5DD
:1009300096E49093AE008093AD001092B4001092B4
:10094000B30086E292E09093A8008093A70086EF20
:1009500099E09093AA008093A90088E293E0909395
:10096000B0008093AF008CE592E19093B200809349
:10097000B10080EA90E09093C8008093C70088E2BD
:1009800090E09093CC008093CB001092EA001092FC
:10099000E9008AE590E09093E6008093E5008CED15
:1009A00095E090932401809323011092A10010926E
:1009B000A0001092250110929F0010929E001092AC
:1009C0009D0088E08093A20087B3856087BBC29AB0
:1009D000C09AB89888EA8DB980EF8EB98BE091E023
:1009E000909327018093260185E791E09093A400DE
:1009F0008093A3008FEA89BD89B7806189BFC0E079
:100A0000D0E0E0912601F0912701309731F0759BFD
:100A100004C08091250181110995209791F3F0DAA6
:100A2000F0CFAA1BBB1B51E107C0AA1FBB1FA61713
:100A3000B70710F0A61BB70B881F991F5A95A9F787
:100A400080959095BC01CD010895A1E21A2EAA1BB4
:100A5000BB1BFD010DC0AA1FBB1FEE1FFF1FA2176E
:100A6000B307E407F50720F0A21BB30BE40BF50B6B
:100A7000661F771F881F991F1A9469F760957095F4
:100A8000809590959B01AC01BD01CF010895052E85
:100A900097FB16F400940FD057FD05D0D6DF07FC66
:100AA00002D046F408C050954095309521953F4FAF
:100AB0004F4F5F4F089590958095709561957F4F4A
:100AC0008F4F9F4F089568940013E894A0E0B0E022
:100AD000EBE6F5E01DC0EFEFE7F959016A015E238F
:100AE000550FEE08FE2C87019B01AC019E23990F48
:100AF000660B762FCB013BD0CDB7DEB7EAE024C042
:100B00002F923F924F925F926F927F928F929F921D
:100B1000AF92BF92CF92DF92EF92FF920F931F930B
:100B2000CF93DF93CDB7DEB7CA1BDB0B0FB6F894BC
:100B3000DEBF0FBECDBF09942A88398848885F84FC
:100B40006E847D848C849B84AA84B984C884DF806D
:100B5000EE80FD800C811B81AA81B981CE0FD11D51
:100B60000FB6F894DEBF0FBECDBFED010895DF9341
:100B7000CF939F92A0E49A2E0024D001E001F001CF
:100B800016950795F794E794D794C794B794A794CC
:100B900048F41068A20FB31FC41FD51FE61FF71F2C
:100BA000081E191E220F331F441F551F661F771F73
:100BB000881F991F9A9421F79D01AE01BF01C001C2
:0E0BC00011249F90CF91DF910895F894FFCFFC
:080BCE0001000101000000001C
:00000001FF
