:101800000EC01DC01CC01BC01AC019C018C017C014
:1018100016C015C014C013C012C011C010C01124CE
:101820001FBECFE5D2E0DEBFCDBF21E0A0E6B0E035
:1018300001C01D92A833B207E1F765D1ABC2E0CF7A
:10184000F92FE82F83E010D008950F92F92FE82F99
:10185000172E062E81E008D011240F900895F92F3D
:10186000E82F85E001D0089520915F00F894309131
:10187000570030FDFCCF80935700E89520935F0020
:10188000089508B602FE0CC088B7846088BF8091B6
:101890006000815080936000811104C010BE0895E3
:1018A00081E0089581E00895CF93DF936FEF7BECA3
:1018B00080E090E0CADFC2E0D0E0FE016591749163
:1018C000CE01C3DF2296C034D105B9F707B600FCBC
:1018D000FDCF80E090E0C3DF07B600FCFDCFDF91D5
:1018E000CF910895ADDF07B600FCFDCF0895EF92CC
:1018F000FF920F931F93CF93DF93807C7C01892B02
:10190000A1F4E5E6F0E0A8E6B0E08C9180831196C2
:101910008C9111978183E0E0F0E0E491EC93E1E0B9
:10192000F0E0E4911196EC9304C0E11488E1F8062C
:10193000D8F4C701D7DFC8E6D0E0870108561040C9
:10194000698170E0762F66278881682BCE01800F31
:10195000911F7BDF229680E0C83AD80789F7C7013C
:101960007EDF07B600FCFDCFDF91CF911F910F9175
:10197000FF90EF900895CF93DF93909163009230A2
:1019800009F441C028F4992361F0913099F1B6C06F
:10199000943009F447C008F44DC0953009F461C093
:1019A000ADC0823099F028F4882341F0813051F0A5
:1019B000A7C0833079F0843091F0A2C08091A80054
:1019C00052D19EC081E0809363009AC084E08093EE
:1019D000630096C085E08093630010D191C010929F
:1019E00063000CD18EE13FD183E93DD18BE03BD147
:1019F00000D186C090E0909362008093610082E005
:101A0000809363007DC020E030E030916100280FBA
:101A1000311D220F331F309362002093610010921A
:101A200063006EC0809367001092640083E080932F
:101A3000630066C090916400E92FF0E0E859FF4F21
:101A4000808381E0890F80936400909167008913FF
:101A500057C0809161009091620049DF109263004D
:101A60004FC0809367001092630020916100309115
:101A70006200232B19F081112BC042C0C5E6D0E0D3
:101A80008881F1D08981EFD08091610090916200CE
:101A9000029690936200809361008091670090E0CD
:101AA000039774F1C2E0D0E0E0916100F091620030
:101AB000CF01019690936200809361008491D3D00E
:101AC00021968091670090E0C817D9076CF318C081
:101AD000C0E0D0E0E0916100F0916200CF0101969A
:101AE00090936200809361008491BDD02196809193
:101AF000670090E0C817D9076CF302C0109263002A
:101B0000DF91CF9108958FE080BF82E080936000E5
:101B1000B8DE8111FDCF6DD071D02FD030D01092B2
:101B2000A800C2DE88E543D08FE080BF8CE08093C0
:101B3000600080E098D007C0B6D065D0882369F0F7
:101B40006AD081110AC09DDE8111F6CF10C083E0FA
:101B50001AD0AADEEFE0F0E0099513D085E013D0AB
:101B6000A2D051D08111FCCF5ED005DFF9CFEFE0DC
:101B7000F0E0E491EF3F59F7F0CFB99A0895C19A98
:101B80000895C1980895CF93DF93882369F0D82FE3
:101B9000C0E0F5DF000000000000F3DF00000000FF
:101BA0000000CF5FDC13F5CFDF91CF910895109245
:101BB000EF008093F30081E08093F1001092F00039
:101BC0001092EE001092F2001092A900B898C09AFC
:101BD000BA9AC29A80EE8EB988EA8DB908951FB874
:101BE000B89A8EE08EB90895B8981FB88EE08EB975
:101BF00008951092F0001092EE0008951092F200F5
:101C00001092A900089581E02091EE009091F000DB
:101C1000291380E0089581E02091A9009091F200BD
:101C2000291380E008959091F000E92FF0E0E65547
:101C3000FF4F80819F5F943418F49093F0000895D3
:101C40001092F00008959091EE00E92FF0E0E65533
:101C5000FF4F80839F5F943418F49093EE000895B3
:101C60001092EE0008959091A900E92FF0E0EC5059
:101C7000FF4F80839F5F943418F49093A9000895D8
:101C80001092A90008959091F200E92FF0E0EC5035
:101C9000FF4F80819F5F943418F49093F200089571
:101CA0001092F2000895779B0BC0B299FECFB898BE
:101CB0006E9A80E48EB9779A81E08093EF006C9AF7
:101CC000769B5EC08091EF008330D1F128F48130A3
:101CD00049F08230D1F051C0853059F1C8F18630D9
:101CE000E9F14BC08FB186959091F300891309C03B
:101CF0008FB181708093F10072DF82E08093EF00FA
:101D000002C01092EF00769A3BC0B8988091F10023
:101D1000882341F0B8DF8FB9B89A1EB884E0809369
:101D2000EF0005C0B8981EB883E08093EF00769A64
:101D300027C0B8981EB883E08093EF00769A20C041
:101D40008FB181DF4CDF85E08093EF00769A18C079
:101D50004BDF86E08093EF00769A12C0789908C036
:101D600092DF8FB9B89A1EB884E08093EF0003C069
:101D70001092EF006C98769A03C08091F30017DF01
:101D8000759B07C06E9880EE8EB91092EF008DB1F2
:081D90008DB90895F894FFCF0E
:0400000300001800E1
:00000001FF
