S01600005457495F4D61737465725F375F302E737265632A
S11300000C9468000C947A000C947A000C947A0096
S11300100C947A000C947A000C947A000C947A0074
S11300200C947A000C947A000C947A000C947A0064
S11300300C947A000C947A000C947A000C947A0054
S11300400C947A000C947A000C947A000C947A0044
S11300500C947A000C947A000C947A000C947A0034
S11300600C947A000C947A0004023A02D302D3026C
S1130070CC01F801D302D302D302D302D302CC01C0
S1130080D302F401D302CC01FC01D3025A02CD0203
S1130090D3027202D302D302D302D302D302D30215
S11300A0D302D302D302D30200022E02D302D3021C
S11300B02A02D3029702D302D302D302D302EC0161
S11300C0D302D302D302D302D302D0017902C602EF
S11300D011241FBECFEFD8E0DEBFCDBF21E0A0E0EA
S11300E0B1E001C01D92A235B207E1F70E94AB0155
S11300F00C94E0020C9400003A9A0895882341F08D
S113010090E042980000429A00009F5F8913F9CF63
S113011008951092C50087E68093C40082E080931E
S1130120C00088E18093C10086E08093C2000895F6
S1130130E0ECF0E0908195FFFDCF8093C600089538
S1130140E0ECF0E080818823ECF78091C60008950C
S113015087B18F7C87B988B18F7C88B988E4809314
S1130160B8001092B90084E08093BC000895CF9346
S1130170DF93DB0194EA9093BC00ECEBF0E0908118
S11301809923ECF79091B900983009F048C0816048
S11301908093BB0084E88093BC00ECEBF0E08081AA
S11301A08823ECF78091B90091E0803409F490E061
S11301B08034D1F541505109C9F09D01240F351FF8
S11301C0ECEBF0E094EC69EB70E04BEB50E09083E7
S11301D080818823ECF7EB018881803521F5EA01E1
S11301E088818D93A217B30791F701C09D0184E81C
S11301F08093BC00ECEBF0E080818823ECF78091E5
S1130200B90091E0883509F490E0883549F480918B
S1130210BB00F901808384E98093BC0001C091E0B4
S1130220911102C004C091E084E98093BC0081E094
S1130230911180E0DF91CF9108950F931F93CF9395
S1130240DF9394EA9093BC00ECEBF0E09081992367
S1130250ECF79091B900983009F048C08E7F8093F4
S1130260BB0084E88093BC00ECEBF0E08081882341
S1130270ECF78091B90091E0883109F490E088317D
S1130280D1F541505109D1F0DB019B01240F351FF9
S11302904BEB50E0ECEBF0E094E809EB10E08D91CF
S11302A0EA018883908380818823ECF7E8018881C0
S11302B0883201F5BD012A173B0789F7FB018081CC
S11302C08093BB0084E88093BC00ECEBF0E0808179
S11302D08823ECF78091B90091E0883209F490E02A
S11302E0883229F484E98093BC0001C091E0911123
S11302F002C004C091E084E98093BC0081E09111C4
S113030080E0DF91CF911F910F9108950F931F9378
S1130310CF93DF9320910601211111C0663499F423
S1130320009799F0CDE0D1E08C01035F1E4F0E944D
S1130330A0008993C017D107D1F78DE007C01092B0
S113034006018FE303C08FE301C08DE0DF91CF91FD
S11303501F910F9108950E947C000E94A8000E94A2
S113036089000EE411E00F2EF3E0DF2EF02D6894E7
S1130370BB24B2F86894CC24C1F80E94A000482F92
S113038050E0FA01E154F109E433F10508F00BC13E
S1130390EC5CFF4F0C94DA028DE00E949800EDCFE4
S11303A080910301843651F020F48156823080F428
S11303B0E4CF853641F0863601F30AC0809102010C
S11303C00E949800DACF809101010E949800D5CF55
S11303D08FEF0E949800D1CF0E94A0008093030168
S11303E08DE00E949800C9CF80E00E949800C5CF9C
S11303F080E00E949800C1CF80E00E949800BDCFA9
S113040089E50E949800B9CF0E94A000C82F0E94DD
S1130410A0002C2F30E0322F2227A901482BCA013B
S11304209093050180930401813058E1950718F0F9
S113043021E02093060121E0F80120839183828347
S113044043E050E0B80180EB0E941D018DE00E9462
S1130450980093CF8DE00E9498008FCF89E50E9489
S1130460980080E00E94980080E40E949800109216
S1130470060183CF0E94A000C82F0E94A000D0E0F4
S1130480DC2FCC27C82B0E94A000682FCE010E942D
S113049086010E949800EBE0F1E0C082C183AE01C6
S11304A055274E5F5F4FBF0180EB0E941D01809373
S11304B0070163CF81E40E94980086E50E949800BA
S11304C082E50E94980082E40E9498008FE40E94D2
S11304D098008FE40E94980084E50E94980010928E
S11304E000014BCF82E30E94980080E30E949800B1
S11304F044CFF801B08241E050E0B80180EB0E94A3
S11305001D018FEF0E947E0043E050E0B80180EBB4
S11305100E94B700F80182810E949800F80181814D
S11305200E949800F80180810E94980026CF0E94C2
S1130530A000E82E0E94A000F12CFE2CEE24E82A54
S1130540E7010E94A000F801D082E18242E050E07D
S1130550B80180EB0E941D0188EC0E947E00A70177
S113056055276BE071E080EB0E94B700CD2B09F4B6
S113057004CFCBE0D1E0A701455F5E4F7A018991BA
S11305800E949800CE15DF05D1F7F7CE81E00E94D6
S1130590980080E00E949800F0CE0E94A0008DE0B8
S11305A00E949800EACE8B3109F4E7CE8FE30E94D3
S11305B09800E3CEEE0FFF1F0590F491E02D09940F
S10705C0F894FFCFD9
S9030000FC
