S01600005457495F4D61737465725F375F302E737265632A
S11300000C9434000C9446000C9446000C94460066
S11300100C9446000C9446000C9446000C94460044
S11300200C9446000C9446000C9446000C94460034
S11300300C9446000C9446000C9446000C94460024
S11300400C9446000C9446000C9446000C94460014
S11300500C9446000C9446000C9446000C94460004
S11300600C9446000C94460011241FBECFEFD8E038
S1130070DEBFCDBF21E0A0E0B1E001C01D92A235FA
S1130080B207E1F70E943F010C9464020C94000053
S11300903A9A089590E0981731F042980000429AF5
S11300A000009F5FF8CF08951092C5008FEC8093F5
S11300B0C40082E08093C00088E18093C10086E0A0
S11300C08093C20008959091C00095FFFCCF809367
S11300D0C60008958091C00087FFFCCF8091C600C0
S11300E0089587B18F7C87B988B18F7C88B988E4FB
S11300F08093B8001092B90084E08093BC00089506
S113010094EA9093BC009091BC0097FFFCCF90912F
S1130110B9009830E1F581608093BB0084E8809356
S1130120BC008091BC0087FFFCCF8091B900803473
S113013071F5FB0180E04150510994EC9F01261BAD
S1130140370B2417350778F49093BC008091BC00DA
S113015087FFFCCF8091B9008035C9F480E02091FD
S1130160BB002193EBCF811112C094E89093BC00A3
S11301709091BC0097FFFCCF9091B900983539F469
S11301809091BB00908394E99093BC0004C084E9EF
S11301908093BC0081E091E08927089594EA9093CC
S11301A0BC009091BC0097FFFCCF9091B9009830AF
S11301B0E1F58E7F8093BB0084E88093BC0080913E
S11301C0BC0087FFFCCF8091B900883171F5FB0139
S11301D080E04150510994E89F01261B370B2417F6
S11301E0350778F481918093BB009093BC00809193
S11301F0BC0087FFFCCF8091B9008832B1F480E065
S1130200EBCF811112C090819093BB0094E890933E
S1130210BC009091BC0097FFFCCF9091B90098323C
S113022021F494E99093BC0004C084E98093BC0059
S113023081E091E0892708950F931F93CF93DF9373
S113024020910601211113C0663499F40BE011E0EA
S1130250EC01C55FDE4F0C171D0739F00E946A00E0
S1130260F80182830F5F1F4FF6CF8DE003C0109219
S113027006018FE3DF91CF911F910F9108950E94A2
S113028048000E9471000E94540004E053E0F52EDF
S113029062E0E62E11E00E946A00833509F4EAC0A8
S11302A0B0F48634C1F350F4823409F4C2C0853406
S11302B009F48BC0813409F48CC001C18E3459F324
S11302C0803509F482C08C3409F0F9C07EC08536CB
S11302D009F47BC070F4813609F479C0823609F4DC
S11302E09CC0863509F0EBC082E30E94630080E382
S11302F060C08C3609F465C040F5873609F0DFC06C
S11303000E946A00C82F0E946A00D0E0DC2FCC272C
S1130310C82B0E946A00F0924E01C0934F0142E044
S113032050E06EE471E080EB0E94CE0088EC0E9405
S11303304A00AE0155276BE071E080EB0E9480001B
S11303402BE0C22E21E0D22EADC0823709F18337D3
S113035009F0B5C000934E0141E050E06EE471E055
S113036080EB0E94CE008FEF0E944A0043E050E0F1
S11303706EE471E080EB0E948000809150010E9445
S1130380630080914F010E94630080914E0111C06F
S113039080910301843659F020F48156823078F438
S11303A07ACF853649F0863609F475CF08C0809136
S11303B002010E9463006FCF80910101FACF8FEF99
S11303C0F8CF0E946A00809303018DE0F2CF89E5A3
S11303D0F0CF0E946A00C82F0E946A002C2F30E0E0
S11303E0322F2227A901482BCA019093050180933B
S11303F00401813058E1950710F010930601109321
S11304004E0190934F018093500143E050E06EE41D
S113041071E080EB0E94CE00D8CF89E50E94630092
S113042080E00E94630080E40E9463001092060151
S113043032CF0E946A00C82F0E946A00D0E0DC2FED
S1130440CC27C82B0E946A00682FCE010E941C0191
S11304500E946300E0920B01C0930C01AE0155278A
S11304604E5F5F4F6BE071E080EB0E94CE008093A3
S1130470070111CF81E40E94630086E50E946300B6
S113048082E50E94630082E40E9463008FE40E947C
S113049063008FE40E94630084E50E94630010926D
S11304A00001F9CEC6018B5091408C179D0708F0CE
S11304B0F2CEF60181916F010E946300F3CF8B317C
S10F04C009F4E9CE8FE375CFF894FFCF68
S9030000FC
